:020000040800F2
:100000000018002069060008E1050008E70500085F
:1000100000000000000000000000000000000000E0
:10002000000000000000000000000000ED050008D6
:100030000000000000000000F705000801060008AD
:10004000E9060008E9060008E9060008E9060008D4
:10005000E9060008E90600080F0600081F06000868
:10006000E9060008E9060008E9060008E9060008B4
:10007000E9060008E9060008E9060008E9060008A4
:10008000E90600080000000000000000E906000882
:1000900000000000E9060008E9060008E90600087B
:1000A00000000000E9060008E9060008E90600086B
:1000B000E906000800000000E9060008E90600085B
:1000C00010B5064C2378002B07D1054B002B02D02E
:1000D000044800E000BF0123237010BD0C00002085
:1000E00000000000E8160008044B10B5002B03D0F8
:1000F0000349044800E000BF10BDC04600000000F6
:1001000010000020E8160008002243088B4274D338
:1001100003098B425FD3030A8B4244D3030B8B4208
:1001200028D3030C8B420DD3FF22090212BA030C11
:100130008B4202D31212090265D0030B8B4219D3F2
:1001400000E0090AC30B8B4201D3CB03C01A524112
:10015000830B8B4201D38B03C01A5241430B8B425A
:1001600001D34B03C01A5241030B8B4201D30B0343
:10017000C01A5241C30A8B4201D3CB02C01A52416A
:10018000830A8B4201D38B02C01A5241430A8B422D
:1001900001D34B02C01A5241030A8B4201D30B0216
:1001A000C01A5241CDD2C3098B4201D3CB01C01A30
:1001B000524183098B4201D38B01C01A524143093A
:1001C0008B4201D34B01C01A524103098B4201D328
:1001D0000B01C01A5241C3088B4201D3CB00C01A95
:1001E000524183088B4201D38B00C01A524143080D
:1001F0008B4201D34B00C01A5241411A00D2014632
:10020000524110467047FFE701B5002000F006F8A4
:1002100002BDC0460029F7D076E770477047C04658
:1002200080B500AF00F062FA00F0BCF800F0F6F81C
:10023000584B1B78002B1ED09023DB050022202179
:10024000180000F01AFD9023DB0501221021180090
:1002500000F013FD9023DB0500224021180000F080
:100260000CFD9023DB0500228021180000F005FD25
:10027000484B00221A70484B1B78002B1ED090234D
:10028000DB0500222021180000F0F7FC9023DB059D
:1002900001221021180000F0F0FC9023DB05012260
:1002A0004021180000F0E9FC9023DB0501228021A9
:1002B000180000F0E2FC384B00221A70374B1B7814
:1002C000002B1ED09023DB0501221021180000F026
:1002D000D4FC9023DB0501222021180000F0CDFC86
:1002E0009023DB0501224021180000F0C6FC90237A
:1002F000DB0501228021180000F0BFFC274B002203
:100300001A70274B1B78002B1ED09023DB05002290
:100310001021180000F0B1FC9023DB050022202101
:10032000180000F0AAFC9023DB05002240211800F1
:1003300000F0A3FC9023DB0500228021180000F0D0
:100340009CFC174B00221A7080239A009023DB0537
:100350001100180000F074FC0300012B11D1802360
:10036000DA009023DB051100180000F069FC031E81
:1003700007D19023DB0501222021180000F07DFC2D
:1003800006E09023DB0500222021180000F075FC18
:100390004EE7C0462B0000202A0000202900002044
:1003A0002800002090B593B000AF14243B1918002A
:1003B00034231A00002101F06BF93B1D18001023B3
:1003C0001A00002101F064F93B1920221A603B1940
:1003D00001221A623B1900225A623B19180000F0F0
:1003E00085FC031E01D000F0D1F83B1D07221A60E6
:1003F0003B1D03225A603B1D00229A603B1D0022D8
:10040000DA603B1D0121180000F0F6FF031E01D049
:1004100000F0BCF8C046BD4613B090BD90B589B0A1
:1004200000AF0C243B19180014231A00002101F01E
:100430002FF93D4B5A693C4B8021C9030A435A614D
:10044000394B5A698023DB031340BB60BB68364BD2
:100450005A69354B802189020A435A61324B5A69E5
:1004600080239B0213407B607B682F4B5A692E4B85
:100470008021C9020A435A612B4B5A698023DB024F
:1004800013403B603B689023DB050022F0211800FD
:1004900000F0F3FB3B19C022D2001A603B198822FE
:1004A00052035A603B1900229A603A199023DB05E7
:1004B0001100180000F05CFA3B19F0221A603B1999
:1004C00001225A603B1900229A603B190022DA602F
:1004D0003A199023DB051100180000F049FA2100B9
:1004E0007B18F0221A607B18882252035A607B180E
:1004F00000229A607B180D4A1900100000F038FAAB
:1005000000220021062000F001FA062000F013FA74
:1005100000220021072000F0F9F9072000F00BFA73
:10052000C046BD4609B090BD00100240000400481E
:1005300080B582B000AF0200BB1D1A80BB1D1B88B6
:10054000102B02D10D4B01221A70BB1D1B88202BD2
:1005500002D10B4B01221A70BB1D1B88402B02D10C
:10056000084B01221A70BB1D1B88802B02D1064B41
:1005700001221A70C046BD4602B080BD280000208E
:10058000290000202A0000202B00002080B500AFA9
:1005900072B6C046FEE7000080B582B000AF0F4BD8
:1005A0009A690E4B01210A439A610C4B9B69012207
:1005B00013407B607B68094BDA69084B8021490551
:1005C0000A43DA61054BDA6980235B0513403B601F
:1005D0003B68C046BD4602B080BDC0460010024028
:1005E00080B500AFFEE780B500AFFEE780B500AF95
:1005F000C046BD4680BD80B500AFC046BD4680BD8B
:1006000080B500AF00F0BAF8C046BD4680BD80B5E9
:1006100000AF082000F04EFBC046BD4680BD80B54F
:1006200000AF102000F046FB202000F043FB4020EC
:1006300000F040FB802000F03DFB80235B001800B1
:1006400000F038FB80239B00180000F033FB802370
:10065000DB00180000F02EFBC046BD4680BD80B513
:1006600000AFC046BD4680BD13488546FFF7F7FF83
:1006700012480168090E124A914205D111481249E7
:10068000016012481249016012481349134A0023BD
:1006900002E0D458C4500433C4188C42F9D3104A31
:1006A000104C002301E013600432A242FBD300F09F
:1006B000F7FFFFF7B5FDFEE700180020040000007B
:1006C0001F0000001810024001000000000001405F
:1006D00000000000000000200C0000203817000877
:1006E0000C00002030000020FEE7000080B500AFC5
:1006F000074B1A68064B10210A431A60032000F0CA
:1007000009F8FFF749FF00231800BD4680BDC04629
:100710000020024090B583B000AF7860144B1C6895
:10072000144B1B781900FA239800FFF7EDFC030027
:1007300019002000FFF7E8FC0300180000F00BF997
:10074000031E01D001230FE07B68032B0BD87968CF
:1007500001235B420022180000F0D8F8064B7A68AB
:100760001A60002300E001231800BD4603B090BDCD
:1007700000000020080000200400002080B500AF29
:10078000054B1B781A00054B1B68D218034B1A60E7
:10079000C046BD4680BDC046080000202C00002099
:1007A00080B500AF024B1B681800BD4680BDC04637
:1007B0002C00002080B582B000AF0200FB1D1A7033
:1007C000FB1D1B787F2B09D8FB1D1B781A001F23EC
:1007D0001A40044B012191400A001A60C046BD46F0
:1007E00002B080BD00E100E090B583B000AF020030
:1007F0003960FB1D1A70FB1D1B787F2B28D82F4AF0
:10080000FB1D1B785BB29B08C0339B009B58FA1DF5
:100810001278110003220A40D200FF2191400A0001
:10082000D2431A4011003B689B01FF221A40FB1D76
:100830001B78180003230340DB009A401F48FB1D70
:100840001B785BB29B080A43C0339B001A5031E00F
:100850001B4AFB1D1B7819000F230B40083B9B080C
:1008600006339B00D31804331B68FA1D127811005D
:1008700003220A40D200FF2191400A00D2431A40CD
:1008800011003B689B01FF221A40FB1D1B781800DA
:1008900003230340DB009A400948FB1D1B781C0022
:1008A0000F232340083B9B080A4306339B00C318D1
:1008B00004331A60C046BD4603B090BD00E100E0BD
:1008C00000ED00E080B582B000AF78607B685A1E12
:1008D00080235B049A4201D3012310E00A4B7A681B
:1008E000013A5A6001235B4203211800FFF77CFFA5
:1008F000054B00229A60044B07221A60002318005F
:10090000BD4602B080BDC04610E000E080B584B0B6
:1009100000AFB9607A600F217B18021C1A70BA68A8
:100920007B181B785BB211001800FFF75DFFC04613
:10093000BD4604B080BD80B582B000AF0200FB1D93
:100940001A70FB1D1B785BB21800FFF733FFC0461F
:10095000BD4602B080BD80B582B000AF78607B68D4
:100960001800FFF7AFFF03001800BD4602B080BDBE
:1009700080B586B000AF7860396000237B6149E1C3
:100980003B681B6801217A6991400A001340FB60B3
:10099000FB68002B00D13AE13B685B6803221340FF
:1009A000012B05D03B685B6803221340022B30D13A
:1009B0007B689B683B617B695B0003229A40130064
:1009C000DA433B6913403B613B68DA687B695B0053
:1009D0009A4013003A6913433B617B683A699A6015
:1009E0007B685B683B6101227B699A401300DA43B4
:1009F0003B6913403B613B685B681B0901221A405D
:100A00007B699A4013003A6913433B617B683A69FA
:100A10005A603B685B6803221340032B17D07B6846
:100A2000DB683B617B695B0003229A401300DA4379
:100A30003B6913403B613B689A687B695B009A4065
:100A400013003A6913433B617B683A69DA603B689B
:100A50005B6803221340022B23D17B69DA087B6891
:100A600008329200D3583B617B69072213409B00F8
:100A70000F229A401300DA433B6913403B613B6805
:100A80001A697B6907210B409B009A4013003A6961
:100A900013433B617B69DA087B680832920039694D
:100AA000D1507B681B683B617B695B0003229A40E5
:100AB0001300DA433B6913403B613B685B680322E8
:100AC0001A407B695B009A4013003A6913433B610B
:100AD0007B683A691A603B685A68C0239B021340DE
:100AE00000D194E0514B9A69504B01210A439A611D
:100AF0004E4B9B6901221340BB60BB684C4A7B692B
:100B00009B0802339B009B583B617B690322134087
:100B10009B000F229A401300DA433B6913403B616C
:100B20007A689023DB059A420DD07B68414A934254
:100B300007D07B68404A934201D1022304E0052399
:100B400002E0012300E000237A6903210A409200B9
:100B500093403A6913433B6135497B699B080233F3
:100B60009B003A695A50354B9B683B61FB68DA43FE
:100B70003B6913403B613B685A6880235B03134029
:100B800003D03A69FB6813433B612C4B3A699A6086
:100B90002A4BDB683B61FB68DA433B6913403B61EE
:100BA0003B685A6880239B03134003D03A69FB6873
:100BB00013433B61214B3A69DA60204B5B683B6130
:100BC000FB68DA433B6913403B613B685A6880230A
:100BD0009B02134003D03A69FB6813433B61174BF8
:100BE0003A695A60154B1B683B61FB68DA433B6905
:100BF00013403B613B685A6880235B02134003D07B
:100C00003A69FB6813433B610C4B3A691A607B6994
:100C100001337B613B681A687B69DA40131E00D0A0
:100C2000AEE6C046C046BD4606B080BD00100240DC
:100C30000000014000040048000800480004014092
:100C400080B584B000AF78600A00BB1C1A807B6856
:100C50001B69BA1C1288134004D00F23FB18012211
:100C60001A7003E00F23FB1800221A700F23FB18E1
:100C70001B781800BD4604B080BD80B582B000AFBF
:100C8000786008001100BB1C021C1A807B1C0A1C27
:100C90001A707B1C1B78002B04D0BB1C1A887B6845
:100CA0009A6103E0BB1C1A887B689A62C046BD4605
:100CB00002B080BD80B582B000AF0200BB1D1A80BB
:100CC000094B5B69BA1D1288134008D0064BBA1D48
:100CD00012885A61BB1D1B881800FFF729FCC0460B
:100CE000BD4602B080BDC0460004014080B588B05A
:100CF00000AF78607B68002B02D1012300F076FB07
:100D00007B681B680122134000D18EE0C54B5B68F5
:100D10000C221340042B0ED0C24B5B680C221340F4
:100D2000082B17D1BF4B5A68C0235B021A4080239F
:100D30005B029A420ED1BB4B1A6880239B02134080
:100D400000D171E07B685B68002B00D06CE0012370
:100D500000F04CFB7B685B68012B07D1B14B1A6834
:100D6000B04B802149020A431A602FE07B685B6820
:100D7000002B0CD1AB4B1A68AA4BAB490A401A6046
:100D8000A84B1A68A74BA9490A401A601EE07B6865
:100D90005B68052B0ED1A34B1A68A24B8021C902B8
:100DA0000A431A609F4B1A689E4B802149020A43EE
:100DB0001A600BE09B4B1A689A4B9B490A401A60D9
:100DC000984B1A68974B99490A401A607B685B6890
:100DD000002B14D0FFF7E4FC0300BB6108E0FFF731
:100DE000DFFC0200BB69D31A642B01D90323FDE2A7
:100DF0008C4B1A6880239B021340F0D015E0FFF75C
:100E0000CFFC0300BB6108E0FFF7CAFC0200BB692E
:100E1000D31A642B01D90323E8E2824B1A6880239A
:100E20009B021340F0D100E0C0467B681B680222A1
:100E3000134000D16CE07B4B5B680C2213400ED05A
:100E4000784B5B680C221340082B1FD1754B5A68F6
:100E5000C0235B021A4080231B029A4216D1714BB9
:100E60001B680222134005D07B68DB68012B01D090
:100E70000123BBE26B4B1B68F822934319007B688C
:100E80001B69DA00674B0A431A6041E07B68DB6844
:100E9000002B24D0634B1A68624B01210A431A606D
:100EA000FFF77EFC0300BB6108E0FFF779FC02005E
:100EB000BB69D31A022B01D9032397E2594B1B6854
:100EC00002221340F1D0574B1B68F82293431900BC
:100ED0007B681B69DA00534B0A431A6018E0514BD8
:100EE0001A68504B01218A431A60FFF759FC03002E
:100EF000BB6108E0FFF754FC0200BB69D31A022B68
:100F000001D9032372E2474B1B6802221340F1D13F
:100F10007B681B680822134036D07B68DB69002B96
:100F200019D0404B5A6A3F4B01210A435A62FFF7DE
:100F300037FC0300BB6108E0FFF732FC0200BB692D
:100F4000D31A022B01D9032350E2364B5B6A0222EB
:100F50001340F1D018E0334B5A6A324B01218A43D7
:100F60005A62FFF71DFC0300BB6108E0FFF718FCA5
:100F70000200BB69D31A022B01D9032336E2294BA5
:100F80005B6A02221340F1D17B681B680422134084
:100F900000D1B5E01F203B1800221A70214BDA69FE
:100FA00080235B05134010D11E4BDA691D4B802155
:100FB00049050A43DA611B4BDA6980235B0513405C
:100FC000FB60FB683B1801221A70194B1A688023DA
:100FD0005B0013401AD1164B1A68154B802149004B
:100FE0000A431A60FFF7DCFB0300BB6108E0FFF770
:100FF000D7FB0200BB69D31A642B01D90323F5E1A7
:101000000B4B1A6880235B001340F0D07B689B6811
:10101000012B0FD1034B1A6A024B01210A431A62BA
:1010200036E0C04600100240FFFFFEFFFFFFFBFF5F
:10103000007000407B689B68002B0CD1CA4B1A6A79
:10104000C94B01218A431A62C74B1A6AC64B042155
:101050008A431A621CE07B689B68052B0CD1C24B4B
:101060001A6AC14B04210A431A62BF4B1A6ABE4B6B
:1010700001210A431A620BE0BB4B1A6ABA4B0121E9
:101080008A431A62B84B1A6AB74B04218A431A6220
:101090007B689B68002B14D0FFF782FB0300BB61C9
:1010A00009E0FFF77DFB0200BB69D31AAF4A934208
:1010B00001D903239AE1AC4B1B6A02221340F0D002
:1010C00013E0FFF76DFB0300BB6109E0FFF768FB6E
:1010D0000200BB69D31AA54A934201D9032385E1D3
:1010E000A14B1B6A02221340F0D11F23FB181B786F
:1010F000012B05D19C4BDA699B4B9D490A40DA6173
:101100007B681B681022134063D07B685B69012BEE
:101110002AD1954B5A6B944B04210A435A63924B44
:101120005A6B914B01210A435A63FFF739FB0300C5
:10113000BB6108E0FFF734FB0200BB69D31A022B46
:1011400001D9032352E1884B5B6B02221340F1D09B
:10115000854B5B6BF822934319007B689B69DA002F
:10116000814B0A435A6334E07B685B69053311D1D4
:101170007D4B5A6B7C4B04218A435A637A4B5B6BE1
:10118000F822934319007B689B69DA00764B0A4387
:101190005A631EE0744B5A6B734B04210A435A6323
:1011A000714B5A6B704B01218A435A63FFF7F8FA6F
:1011B0000300BB6108E0FFF7F3FA0200BB69D31A32
:1011C000022B01D9032311E1674B5B6B0222134011
:1011D000F1D17B681B68202213405CD0624B5B68B6
:1011E0000C2213400C2B0ED05F4B5B680C2213407B
:1011F000082B14D15C4B5A68C0235B021A40C023F1
:101200005B029A420BD1584B5A6B80239B021340CE
:1012100040D07B681B6A012B3CD00123E6E07B6851
:101220001B6A002B1BD0504B5A6B4F4B802149023D
:101230000A435A63FFF7B4FA0300BB6108E0FFF703
:10124000AFFA0200BB69D31A022B01D90323CDE008
:10125000454B5A6B80239B021340F0D01BE0424B5E
:101260005A6B414B43490A405A63FFF799FA03000E
:10127000BB6108E0FFF794FA0200BB69D31A022BA6
:1012800001D90323B2E0384B5A6B80239B021340F1
:10129000F0D100E0C0467B685B6A002B00D1A4E07F
:1012A000314B5B680C221340082B00D178E07B683F
:1012B0005B6A022B4CD12C4B1A682B4B2E490A40EF
:1012C0001A60FFF76DFA0300BB6108E0FFF768FAE8
:1012D0000200BB69D31A022B01D9032386E0224BFB
:1012E0001A6880239B041340F0D11F4BDB6A0F2246
:1012F000934319007B681A6B1B4B0A43DA621A4B43
:101300005B681E4A134019007B68DA6A7B689B6A37
:101310001A43154B0A435A60134B1A68124B80212B
:1013200049040A431A60FFF73BFA0300BB6108E077
:10133000FFF736FA0200BB69D31A022B01D9032347
:1013400054E0094B1A6880239B041340F0D04CE012
:10135000054B1A68044B08490A401A60FFF720FA47
:101360000300BB6115E0C046001002408813000076
:10137000FFFFFFEFFFFFFEFFFFFFFFFEFF7FC2FF4C
:10138000FFF70EFA0200BB69D31A022B01D903231F
:101390002CE0184B1A6880239B041340F0D124E002
:1013A0007B685B6A012B01D101231FE0114B5B6855
:1013B0007B61104BDB6A3B617A69C0235B021A4098
:1013C0007B689B6A9A420ED13B690F221A407B6868
:1013D0001B6B9A4207D17A69F0239B031A407B6802
:1013E000DB6A9A4201D0012300E000231800BD46C9
:1013F00008B080BD0010024080B584B000AF7860B6
:1014000039607B68002B01D10123BFE0614B1B6871
:10141000012213403A689A4211D95E4B1B6801229F
:10142000934319005B4B3A680A431A60594B1B6897
:10143000012213403A689A4201D00123A6E07B685A
:101440001B680222134015D07B681B6804221340DE
:1014500006D0514B5A68504BE021C9000A435A60EC
:101460004D4B5B68F022934319007B689A684A4BA6
:101470000A435A607B681B68012213404CD07B688A
:101480005B68012B07D1444B1A6880239B021340F1
:1014900020D101237AE07B685B68022B07D13E4BA9
:1014A0001A6880239B04134014D101236EE07B68EB
:1014B0005B68032B07D1384B5A6B80239B02134088
:1014C00008D1012362E0344B1B680222134001D192
:1014D00001235BE0304B5B680322934319007B6878
:1014E0005A682D4B0A435A60FFF75AF90300FB6014
:1014F00009E0FFF755F90200FB68D31A274A934227
:1015000001D9032342E0244B5B680C221A407B681C
:101510005B689B009A42ECD11E4B1B680122134072
:101520003A689A4211D21B4B1B680122934319005F
:10153000184B3A680A431A60164B1B680122134085
:101540003A689A4201D0012320E07B681B6804229C
:10155000134009D0104B5B68114A134019007B6897
:10156000DA680D4B0A435A6000F020F801000A4B7C
:101570005B681B090F2213400A4AD35C0A00DA4059
:10158000094B1A600320FFF7C5F800231800BD4679
:1015900004B080BD0020024000100240881300000B
:1015A000FFF8FFFF001700080000002080B586B09C
:1015B00000AF0023FB600023BB6000237B6100239E
:1015C0007B6000233B612D4B5B68FB60FB680C225A
:1015D00013400C2B46D048D8042B02D0082B03D044
:1015E00043E0274B3B6143E0FB689B0C0F22134019
:1015F000244AD35C7B60214BDB6A0F221340224AD2
:10160000D35CBB60FA68C0235B021A4080235B0294
:101610009A4209D1B9681A48FEF776FD03001A000C
:101620007B6853437B611AE0FA68C0235B021A406F
:10163000C0235B029A4209D1B9681448FEF764FDE1
:1016400003001A007B6853437B6108E0B9680C48CB
:10165000FEF75AFD03001A007B6853437B617B69E8
:101660003B6105E0094B3B6102E0054B3B61C04635
:101670003B691800BD4606B080BDC0460010024060
:1016800000127A001017000820170008006CDC0216
:1016900003008218934200D1704719700133F9E7B3
:1016A00070B500260C4C0D4D641BA410A64209D148
:1016B000002600F019F80A4C0A4D641BA410A6423B
:1016C00005D170BDB300EB5898470136EEE7B30083
:1016D000EB5898470136F2E730170008301700083A
:1016E0003417000830170008F8B5C046F8BC08BC2D
:1016F0009E467047F8B5C046F8BC08BC9E46704789
:1017000000000000000000000102030406070809B1
:1017100002030405060708090A0B0C0D0E0F101032
:101720000102030405060708090A0B0C0D0E0F1031
:04173000E9000008C4
:04173400C1000008E8
:0C17380000127A00040000000100000014
:040000050800066980
:00000001FF
